:020000040800F2
:1000000000000320799600089F440008A1440008DE
:10001000A3440008A5440008A7440008000000000D
:10002000000000000000000000000000818E0008B9
:10003000A944000800000000118F0008298800086A
:10004000C9960008C9960008C9960008C996000814
:10005000C9960008C9960008C9960008C996000804
:10006000C9960008C9960008C9960008C9960008F4
:10007000C9960008C9960008C9960008C9960008E4
:10008000C9960008C9960008C9960008C9960008D4
:10009000C9960008C9960008C9960008C9960008C4
:1000A000C9960008C9960008C9960008C9960008B4
:1000B000C9960008C9960008C9960008C9960008A4
:1000C000C9960008C9960008C9960008C996000894
:1000D000C9960008C9960008C9960008C996000884
:1000E000C9960008C9960008C9960008C996000874
:1000F000C9960008C9960008C9960008C996000864
:10010000C9960008C9960008C9960008C996000853
:10011000C9960008C9960008AD440008C9960008B1
:10012000C9960008C9960008C9960008C996000833
:10013000C9960008C9960008C9960008C996000823
:10014000C9960008C9960008C9960008C996000813
:10015000C9960008C9960008C9960008C996000803
:10016000C9960008C9960008C9960008C9960008F3
:10017000C9960008C9960008C9960008000000004A
:10018000C9960008C9960008C9960008C9960008D3
:10019000C9960008C9960008C9960008C9960008C3
:0C01A000B9440008C9960008C5440008D6
:1001B00010B5054C237833B9044B13B10448AFF3A1
:1001C00000800123237010BD800300200000000088
:1001D000E86C020808B5034B1BB103490348AFF3B1
:1001E000008008BD0000000084030020E86C0208C5
:1001F00081F0004102E000BF83F0004330B54FEAD8
:1002000041044FEA430594EA050F08BF90EA020F44
:100210001FBF54EA000C55EA020C7FEA645C7FEAD7
:10022000655C00F0E2804FEA5454D4EB5555B8BFFA
:100230006D420CDD2C4480EA020281EA030382EA6B
:10024000000083EA010180EA020281EA0303362DFD
:1002500088BF30BD11F0004F4FEA01314FF4801CD0
:100260004CEA113102D0404261EB410113F0004FE2
:100270004FEA03334CEA133302D0524263EB430399
:1002800094EA050F00F0A780A4F10104D5F1200E37
:100290000DDB02FA0EFC22FA05F2801841F1000192
:1002A00003FA0EF2801843FA05F359410EE0A5F166
:1002B00020050EF1200E012A03FA0EFC28BF4CF097
:1002C000020C43FA05F3C01851EBE37101F000454D
:1002D00007D54FF0000EDCF1000C7EEB00006EEB5A
:1002E0000101B1F5801F1BD3B1F5001F0CD34908E4
:1002F0005FEA30004FEA3C0C04F101044FEA44523B
:1003000012F5800F80F09A80BCF1004F08BF5FEAC1
:10031000500C50F1000041EB045141EA050130BDA1
:100320005FEA4C0C404141EB010111F4801FA4F144
:100330000104E9D191F0000F04BF01460020B1FA99
:1003400081F308BF2033A3F10B03B3F120020CDAD1
:100350000C3208DD02F1140CC2F10C0201FA0CF0AF
:1003600021FA02F10CE002F11402D8BFC2F1200C14
:1003700001FA02F120FA0CFCDCBF41EA0C019040CA
:10038000E41AA2BF01EB0451294330BD6FEA040413
:100390001F3C1CDA0C340EDC04F11404C4F12002FE
:1003A00020FA04F001FA02F340EA030021FA04F310
:1003B00045EA030130BDC4F10C04C4F1200220FA67
:1003C00002F001FA04F340EA0300294630BD21FAA5
:1003D00004F0294630BD94F0000F83F4801306BF6B
:1003E00081F480110134013D4EE77FEA645C18BF5F
:1003F0007FEA655C29D094EA050F08BF90EA020FF6
:1004000005D054EA000C04BF1946104630BD91EAED
:10041000030F1EBF0021002030BD5FEA545C05D1F0
:100420004000494128BF41F0004130BD14F580042F
:100430003CBF01F5801130BD01F0004545F0FE41A3
:1004400041F470014FF0000030BD7FEA645C1ABFD8
:10045000194610467FEA655C1CBF0B46024650EA0F
:10046000013406BF52EA033591EA030F41F400213B
:1004700030BD00BF90F0000F04BF0021704730B5C1
:100480004FF4806404F132044FF000054FF0000196
:1004900050E700BF90F0000F04BF0021704730B557
:1004A0004FF4806404F1320410F0004548BF40422C
:1004B0004FF000013EE700BF42004FEAE2014FEA81
:1004C00031014FEA02701FBF12F07F4393F07F4F5C
:1004D00081F06051704732F07F4208BF704793F05F
:1004E0007F4F04BF41F40021704730B54FF4607472
:1004F00001F0004521F000411CE700BF50EA010275
:1005000008BF704730B54FF000050AE050EA01021D
:1005100008BF704730B511F0004502D5404261EB8D
:1005200041014FF4806404F132045FEA915C3FF4CE
:10053000D8AE4FF003025FEADC0C18BF03325FEA6B
:10054000DC0C18BF033202EBDC02C2F1200300FA1C
:1005500003FC20FA02F001FA03FE40EA0E0021FA41
:1005600002F11444BDE600BF70B54FF0FF0C4CF42F
:10057000E06C1CEA11541DBF1CEA135594EA0C0FE1
:1005800095EA0C0F00F0DEF82C4481EA030621EA1C
:100590004C5123EA4C5350EA013518BF52EA033557
:1005A00041F4801143F4801338D0A0FB02CE4FF009
:1005B0000005E1FB02E506F00042E0FB03E54FF039
:1005C0000006E1FB03569CF0000F18BF4EF0010E31
:1005D000A4F1FF04B6F5007F64F5407404D25FEA2D
:1005E0004E0E6D4146EB060642EAC62141EA5551E0
:1005F0004FEAC52040EA5E504FEACE2EB4F1FD0C22
:1006000088BFBCF5E06F1ED8BEF1004F08BF5FEA9F
:10061000500E50F1000041EB045170BD06F0004651
:1006200046EA010140EA020081EA0301B4EB5C04FE
:10063000C2BFD4EB0C0541EA045170BD41F48011F6
:100640004FF0000E013C00F3AB8014F1360FDEBF1B
:10065000002001F0004170BDC4F10004203C35DAF7
:100660000C341BDC04F11404C4F1200500FA05F37A
:1006700020FA04F001FA05F240EA020001F000421B
:1006800021F0004110EBD37021FA04F642EB060191
:100690005EEA430E08BF20EAD37070BDC4F10C04BB
:1006A000C4F1200500FA04F320FA05F001FA04F27F
:1006B00040EA020001F0004110EBD37041F100016B
:1006C0005EEA430E08BF20EAD37070BDC4F1200576
:1006D00000FA05F24EEA020E20FA04F301FA05F2DE
:1006E00043EA020321FA04F001F0004121FA04F286
:1006F00020EA020000EBD3705EEA430E08BF20EA56
:10070000D37070BD94F0000F0FD101F0004640008F
:1007100041EB010111F4801F08BF013CF7D041EA11
:10072000060195F0000F18BF704703F00046520015
:1007300043EB030313F4801F08BF013DF7D043EAE6
:100740000603704794EA0C0F0CEA135518BF95EA9C
:100750000C0F0CD050EA410618BF52EA4306D1D123
:1007600081EA030101F000414FF0000070BD50EA42
:10077000410606BF1046194652EA430619D094EACC
:100780000C0F02D150EA013613D195EA0C0F05D1B6
:1007900052EA03361CBF104619460AD181EA03010A
:1007A00001F0004141F0FE4141F470014FF00000C2
:1007B00070BD41F0FE4141F4780170BD70B54FF05D
:1007C000FF0C4CF4E06C1CEA11541DBF1CEA1355DD
:1007D00094EA0C0F95EA0C0F00F0A7F8A4EB0504BF
:1007E00081EA030E52EA03354FEA013100F08880B6
:1007F0004FEA03334FF0805545EA131343EA12637F
:100800004FEA022245EA111545EA10654FEA002633
:100810000EF000419D4208BF964244F1FD0404F5EC
:10082000407402D25B084FEA3202B61A65EB030548
:100830005B084FEA32024FF480104FF4002CB6EB05
:10084000020E75EB030E22BFB61A754640EA0C0085
:100850005B084FEA3202B6EB020E75EB030E22BFC5
:10086000B61A754640EA5C005B084FEA3202B6EB06
:10087000020E75EB030E22BFB61A754640EA9C00C5
:100880005B084FEA3202B6EB020E75EB030E22BF95
:10089000B61A754640EADC0055EA060E18D04FEA53
:1008A000051545EA16754FEA06164FEAC30343EAF3
:1008B00052734FEAC2025FEA1C1CC0D111F4801FC0
:1008C0000BD141EA00014FF000004FF0004CB6E7B9
:1008D00011F4801F04BF01430020B4F1FD0C88BF58
:1008E000BCF5E06F3FF6AFAEB5EB030C04BFB6EB63
:1008F000020C5FEA500C50F1000041EB045170BD56
:100900000EF0004E4EEA113114EB5C04C2BFD4EB82
:100910000C0541EA045170BD41F480114FF0000E06
:10092000013C90E645EA060E8DE60CEA135594EA82
:100930000C0F08BF95EA0C0F3FF43BAF94EA0C0F85
:100940000AD150EA01347FF434AF95EA0C0F7FF4FA
:1009500025AF104619462CE795EA0C0F06D152EA4E
:1009600003353FF4FDAE1046194622E750EA410632
:1009700018BF52EA43067FF4C5AE50EA41047FF443
:100980000DAF52EA43057FF4EBAE12E74FEA4102A6
:10099000B2F1E04324BFB3F5001CDCF1FE5C0DD9DD
:1009A00001F0004C4FEAC0024CEA5070B2F1004F27
:1009B00040EB830008BF20F00100704711F0804F2A
:1009C00021D113F13872BCBF01F00040704741F4EF
:1009D00080114FEA5252C2F11802C2F1200C10FAF3
:1009E0000CF320FA02F018BF40F001004FEAC123D7
:1009F0004FEAD32303FA0CFC40EA0C0023FA02F37B
:100A00004FEA4303CCE77FEA625307D150EA013350
:100A10001EBF4FF0FE4040F44000704701F0004020
:100A200040F0FE4040F40000704700BF7BB972B94F
:100A30000029BEBF00204FF0004106E008BF00289B
:100A40001CBF6FF000414FF0FF3000F0BDB9ADF1B9
:100A5000080C6DE904CE002909DB002B1ADB00F03D
:100A60004DF8DDF804E0DDE9022304B070474042B0
:100A700061EB4101002B1BDB00F040F8DDF804E0E6
:100A8000DDE9022304B0404261EB4101524263EBD5
:100A900043037047524263EB430300F02FF8DDF845
:100AA00004E0DDE9022304B0404261EB41017047FC
:100AB000524263EB430300F021F8DDF804E0DDE986
:100AC000022304B0524263EB4303704753B94AB95F
:100AD000002908BF00281CBF4FF0FF314FF0FF3046
:100AE00000F072B9ADF1080C6DE904CE00F006F823
:100AF000DDF804E0DDE9022304B070472DE9F0479A
:100B0000089E04468846002B4BD18A42154667D979
:100B1000B2FA82F24AB1C2F1200701FA02F320FAD6
:100B200007F7954047EA030894404FEA154E230C17
:100B3000B8FBFEF71FFA85FC0EFB178843EA084353
:100B400007FB0CF1994209D9EB1807F1FF3080F04F
:100B50001B81994240F21881023F2B445B1AA4B2D8
:100B6000B3FBFEF00EFB103344EA034400FB0CFC25
:100B7000A44509D92C1900F1FF3380F00781A44561
:100B800040F2048102382C4440EA0740A4EB0C04F4
:100B900000271EB1D4400023C6E900433946BDE812
:100BA000F0878B4209D9002E00F0EB800027C6E9C0
:100BB000000138463946BDE8F087B3FA83F7002FC5
:100BC00047D18B4202D3824200F2FA80841A61EB51
:100BD000030301209846002EE0D0C6E90048DDE777
:100BE00002B9FFDEB2FA82F2002A40F08F80491B80
:100BF0004FEA154E1FFA85F80127B1FBFEFC230CC6
:100C00000EFB1C1143EA014308FB0CF1994207D982
:100C1000EB180CF1FF3002D2994200F2CD808446ED
:100C2000591AA3B2B1FBFEF00EFB101443EA0444C0
:100C300008FB00F8A04507D92C1900F1FF3302D2B8
:100C4000A04500F2B6801846A4EB080440EA0C4028
:100C50009FE7C7F1200CBB4022FA0CFE4EEA030EC0
:100C600001FA07F420FA0CF521FA0CF34FEA1E48BA
:100C70002543B3FBF8F92C0C08FB19331FFA8EFA45
:100C800044EA034309FB0AF49C4202FA07F200FA21
:100C900007F10BD91EEB030309F1FF3080F08780C9
:100CA0009C4240F28480A9F1020973441B1BADB23F
:100CB000B3FBF8F008FB103345EA034400FB0AFAE3
:100CC000A24508D91EEB040400F1FF336BD2A24504
:100CD00069D90238744440EA0940A0FB0289A4EBB8
:100CE0000A044C45C2464B4654D351D0002E69D01D
:100CF000B1EB0A0564EB030404FA0CFCFD40FC4074
:100D00004CEA0505C6E90054002747E7C2F1200375
:100D100020FA03F7954001FA02F021FA03F34FEAB3
:100D2000154E3843010CB3FBFEF71FFA85F80EFB96
:100D3000173341EA034107FB08F38B4204FA02F43C
:100D400007D9691807F1FF3C2FD28B422DD9023FFA
:100D50002944CB1A81B2B3FBFEF00EFB103341EAFB
:100D6000034100FB08F38B4207D9691800F1FF3CEF
:100D700017D28B4215D902382944C91A40EA0747CD
:100D80003BE73746304609E70746E7E61846FBE605
:100D90004145ABD2B8EB020A69EB0E0201381346AB
:100DA000A4E76046E9E7184695E76746D1E781463C
:100DB0007CE702382C4447E7ACF1020C2B442FE7C8
:100DC000384608E73746E9E6704700BF00000000F4
:100DD00001F0FF01102A2BDB10F0070F08D010F8EC
:100DE000013B013A8B422DD010F0070F42B3F6D1F0
:100DF000F0B441EA012141EA014122F007047FF009
:100E000000070023F0E80256083C85EA010586EA5F
:100E1000010685FA47F5A3FA87F586FA47F6A5FA9B
:100E200087F68EB9EED1F0BC01F0FF0102F00702A7
:100E300032B110F8013B013A83EA010313B1F8D152
:100E40000020704701387047002D06BF3546033833
:100E5000073815F0010F07D1013015F4807F02BF6C
:100E6000013015F4C03F0130F0BC0138704700BFBD
:100E700090F8252012B103685B691847704781809C
:100E80007047C1807047018170474181704770474A
:100E90007047704770477047C38810B4D21A838870
:100EA0005DF8044BC91A036812B25B6D09B21847AA
:100EB000806A704710B5034B0360044600F087F961
:100EC000204610BD7C6D020810B50446FFF7F2FF06
:100ED00020468C2123F0A4F9204610BD10B504460D
:100EE00000F0CCF9014B2360204610BD7C6D020858
:100EF000F0B51A4A8FB006460F4601AC02F1300336
:100F000010685168254603C508329A422C46F7D12D
:100F1000106828600A2297FBF2F302FB13731BB2DE
:100F20000EA903EB43030B44684613F8341C8DF8F9
:100F3000001013F8331C13F8323C8DF801108DF8B3
:100F4000023006F1780100238DF8033014F01BF80D
:100F500006F12C0010F0CBFF0FB0F0BD406D020881
:100F600000F036B970477047704770477047704758
:100F700010B5034B0360044600F03EFA204610BD56
:100F8000106E020810B50446FFF7F2FF20464FF43A
:100F9000007123F045F9204610BD000010B504464D
:100FA00000F0F2FA014B2360204610BD106E0208DB
:100FB00000F023BA704704387047704710B510210D
:100FC000044623F02DF9204610BDA0F10400F5E7FA
:100FD00010B500228260044AC16002F10804203288
:100FE0000460426010BD00BF446E020870470438C0
:100FF0007047704710B51021044623F011F92046C0
:1010000010BDA0F10400F5E710B500228260044A8B
:10101000C16002F1080420320460426010BD00BFCC
:101020006C6E02087047084611460022FFF760BF49
:1010300010B5034B0360044600F032FC204610BD9F
:101040009C6E020810B50446FFF7F2FF204640F6FA
:10105000380123F0E5F8204610BD000010B5044625
:1010600000F00EFD014B2360204610BD9C6E02086F
:1010700000F06ABF10B50A4B1A6801320A2AC8BFCD
:1010800000221A6004464FF0FF3200F28440B3F9A8
:10109000001008F0F3FF201DBDE8104010F027BF3E
:1010A0009C0300200022026070477047704700F5E3
:1010B00098730868496803C37047704701F034B9F2
:1010C00010B54FF4AE71044623F0AAF8204610BDC7
:1010D00010B50446D0F85801FFF7E7FF2046BDE8F9
:1010E00010400FF003BF10B50446D0F8400158B1CE
:1010F0000368DB68984738B1D4F8400103689B68FF
:1011000098470023C4F8403110BD000010B50446D4
:1011100001F0CEF8014B2360204610BDE06E0208BE
:10112000002070474FF6FF7383814FF0FF33036257
:101130001368C3611060704790F825201AB190F8C9
:10114000242002B118607047704730B585B003683D
:1011500001816D4601460446D3F8843028469847FD
:1011600095E807003C3484E8070005B030BD30B591
:1011700085B0036841816D4601460446D3F884304A
:101180002846984795E807003C3484E8070005B0F6
:1011900030BD0022028042808280C280704780F889
:1011A0003610704770B5036804461B6B15469847A8
:1011B0002368294620465B6EBDE870401847002032
:1011C000704708B5FFF754FE08BD806C7047704744
:1011D0007047704710B50821044623F021F82046D7
:1011E00010BD10B54C21044623F01AF8204610BD5E
:1011F00010B58C21044623F013F8204610BD0000E2
:1012000070B503685E6B124B1B6804468DB22BB938
:10121000104B114A6C21114824F082FD1049828D37
:101220000988914203D80F4B0B4A6D21F3E713F85D
:1012300012200D4B1B6853F8220003681B6B984764
:10124000291A3346204609B2BDE87040184700BF4E
:10125000002C0120CF6F02082471020811700208CF
:10126000042C012052700208082C012000224FF0AB
:10127000FF31C0E900218260704700002DE9F04194
:101280000646002501234F4A8580C5808581C5819A
:1012900005824582C0E90555C5610584458480F80D
:1012A000245080F825308562DFF8448146F82C2BE5
:1012B00080F851304FF6FF7304464FF47F020586E5
:1012C00045868586C586058745878587C587C0E9A4
:1012D00010558564A0F84C50A0F84E5080F850503E
:1012E0004521B427C0F85480A0F85830A0F86C30DD
:1012F000A0F86E30344B026686B0C56580F8645045
:1013000080F86550A0F86850A0F86A500567C3627D
:101310004567018147813046FFF717FFE36A394689
:10132000DB6B30469847294BE365E36AA4F86050CD
:101330006D462846D3F884303146984795E8070033
:1013400004F1680787E80700042384F86530E36A3E
:101350002846D3F884303146984795E807001C4B5F
:101360001B6887E8070004F178052BB9194B1A4A66
:1013700060211A4824F0D4FC194B1B880A2B03D88F
:10138000184B154A6121F4E7174B0A21186801F040
:1013900037FD164A03460A21284613F0E7FD0B23C2
:1013A00004A930466567ADF81430CDF810800CF014
:1013B000AFFA2046314609F0B8F8204606B0BDE83D
:1013C000F08100BF98700208446F0208103E57FF7A
:1013D000002C0120CF6F02085F7102081170020813
:1013E000042C0120527002080C2C0120CC6F020842
:1013F000346F02087047704770477047704730B4C9
:10140000C56844686A100346ED0704EB02009B6858
:1014100048BFA25830BC48BFD358184743682BB1C7
:1014200083682BB9C06800F0010070471846704708
:101430000120704710B51021044622F0F1FE20462D
:1014400010BD10B54FF40071044622F0E9FE2046AD
:1014500010BD00F19803994270B504460D4603D1C2
:101460000FF0A8FC00F070FF04F1E0039D4203D1EF
:1014700023682046DB6A984704F594739D4205D1A2
:10148000236820461B6BBDE87040184770BD000004
:101490000A4A026000228280C280028142818281E7
:1014A000C28102824282C0E90522C2610284428472
:1014B00080F82420012280F825207047B88C02088B
:1014C00070B5036804461B6B154698472368294688
:1014D00020465B6BBDE87040184770B504461E4659
:1014E000BDF91050FFF7ECFF2368314620469A6B98
:1014F0009047236829462046DB6BBDE870401847BB
:10150000F8B51A4B018F1B888B42064629D9184B18
:101510001B682BB9174B184A18486C2124F000FCA3
:1015200013F81120164B1B6853F82250154B1868FE
:1015300001F066FC2B6807469B6B284698472B6892
:1015400004469B6C3946284698472B6814FB00F4E8
:101550005B6A394628469847A4B22044A6F846005C
:10156000F8BD0023A0F84630FAE700BF042C0120A4
:10157000002C0120CF6F0208EC71020811700208E4
:10158000082C01200C2C01202DE9F04F04468FB0CF
:10159000A146002511F03CFBAA4BE56349F8403B0E
:1015A00026273A462946484624F035FC4846FFF7A8
:1015B0006FFF04F16C084FF0FF0AA34B23643A4617
:1015C0004FF6FF73294684F866A0A56640460EAE26
:1015D000ADF83030049324F01EFC4046FFF758FF6E
:1015E0009A4AE26636F8082DA4F8922004F1980B86
:1015F000314684F894A040460CF0FBFA58460CF0B3
:1016000039FC04F1E003184602930CF033FC04F5B6
:10161000947304F5B87A184603930CF02BFC3A4601
:101620002946504624F0F7FB5046FFF731FF884A21
:10163000C4F870214FF47F02C4F8A421854BC4F88C
:10164000983104F5DC72049B0492A4F89C31A4F850
:10165000B031A4F8B2313A462946C4F8A05184F812
:10166000A85184F8A951A4F8AC51A4F8AE51C4F81B
:10167000B4510498059324F0CEFB0498FFF708FFBB
:10168000059BA4F8E631A4F8E83184F8EA31A4F81F
:10169000EC31714BC4F8F0314FF001026F4B84F81C
:1016A000DC21C4F8F8316E4AC4F8E0514FF4A0735D
:1016B00084F8E451C4F8B821C4F8FC512A460093D8
:1016C00029464846C4F8F441F023FFF706FF271DDA
:1016D0004FF07F43A3664946384608F026FF2A4666
:1016E00029464046FFF7ECFE062331464046ADF85A
:1016F00030300CF07EFA4146384608F016FF584666
:1017000040F209127E21FFF7DBFE0BA93246584654
:10171000ADF82C50ADF830500CF054F94FF00502F4
:10172000A4F8D0205846FFF7EBFE4FF0FF3904F540
:10173000F873C4F8C03059463846C4E93599059362
:1017400008F0F3FE029848227E21FFF7B9FE4FF021
:10175000010B32464FF002080BA90298ADF82CB0ED
:10176000ADF830800CF02EF9A4F818510298FFF76C
:10177000C7FE059BC4F808310299C4F81C9138468D
:10178000C4F8209108F0D1FE039848220D21FFF7FC
:1017900097FE32460BA90398ADF82CB0ADF8308017
:1017A0000CF010F90398A4F860B1FFF7A9FE059BAF
:1017B000C4F850310399C4F864913846C4F868916C
:1017C00008F0B3FE23230093102250468C233221CD
:1017D000FFF783FE234BA4F8A45106ADC4F8A03153
:1017E000514628460BF0FAFD95E8070004F5D6733C
:1017F00083E80700174B0C9331465046ADF8348010
:101800000CF086F85146384608F08FFE049840F2F6
:1018100009120D21FFF754FE04234FF00502ADF825
:101820002C20A4F8EC3132460BA90498ADF83030E6
:101830000CF0C8F83846049908F077FE20460FB03F
:10184000BDE8F08FB87102080C8B0208748B020897
:101850007C8A0208346F0208A07102085314000841
:1018600098890208301F12FF704770477047704711
:10187000022070477047704770B50646074B46F820
:10188000043B054600F58E74A64205D054F88C3D05
:101890001B6820469847F7E7284670BD307202085B
:1018A00010B5084B0360044600F5A960FFF7E4FF9C
:1018B00004F55A70FFF7E0FF04F5C470FFF7DCFF92
:1018C000204610BDEC72020830B4C56844686A1046
:1018D0000346ED0704EB02009B6848BFA25830BCEA
:1018E00048BFD358184743682BB183682BB9C068E9
:1018F00000F0010070471846704701207047F0B4AF
:10190000C768466884687D10F80744BF7059045959
:1019100006EB050C6046A446F0BC604743682BB15B
:1019200083682BB9C06800F0010070471846704703
:101930000120704710B50446FFF79EFF20464FF484
:101940008E7122F06DFC204610BD10B510210446AA
:1019500022F066FC204610BD10B51021044622F08E
:101960005FFC204610BD10B50446FFF799FF2046E6
:1019700040F6380122F054FC204610BD08B58BB269
:10198000012B05D9054B064A0648542124F0C8F915
:101990008C2301FB0300043008BD00BF70720208F5
:1019A000287302088B720208D0F8343801333C2BBC
:1019B00010B5C0F83438044605D103689B6B9847CE
:1019C0000023C4F8343810BD00F28470884208B592
:1019D00005D10FF0EFF9BDE8084000F0C5BC08BD27
:1019E00038B5262204460D46002124F014FA20467C
:1019F000FFF74EFD064B23602B88E384FF23204630
:101A000084F8283029460CF0F4F8204638BD00BF91
:101A1000748B020810B526220446002124F0FBF93D
:101A20002046FFF735FD0C4B23600C4BA3624FF6AD
:101A3000FF7200234FF47F01A285C4E90C3184F8C2
:101A4000383084F83930A387E387A4F84020A4F81D
:101A500042206364204610BD7C8A0208346F02086D
:101A600010B5064B044640F8043BFFF737FA04F183
:101A70009000FFF733FA204610BD00BF3072020815
:101A80002DE9F04F044697B0A146002511F0C0F8AB
:101A9000E34BE56349F8403B26222946484624F0BB
:101AA000BAF90DF1580A4846FFF7F2FC4FF6FF76F7
:101AB000DC4B2AF8086D2364FF2384F8663004F1B8
:101AC0006C035146A56618460993FFF789FF04F198
:101AD0009803514604F1C40718460A93ADF85060C4
:101AE000FFF77EFF384608F01BFA04F5C47304F5CF
:101AF000297618460B93FFF7B3FF304608F010FA2B
:101B000004F55A7304F2844B18460C93FFF7A8FFB0
:101B1000584608F005FA04F5A96318460D93FFF737
:101B20009FFF04F2646318460393FFF773FF04F208
:101B3000AC6318460493FFF76DFF04F2F463184694
:101B40000593FFF767FF04F23C73184606930CF009
:101B500091F904F28473184607930CF08BF904F2A0
:101B6000CC7318460893FFF755FFAF4BC4F81438F1
:101B7000AE4BC4F81C38AE4BC4F82438AD4BC4F897
:101B80002C384FF4A0732A46009329464846C4F8DF
:101B90001848C4F82058C4F82848C4F83058C4F885
:101BA0003458F02304F10408FFF797FC4FF07F430B
:101BB000A3664946404608F0B8FC2A4629460998DB
:101BC000FFF77EFC4FF0060351460998ADF8503000
:101BD0000CF00FF80999404608F0A7FC2A460A982D
:101BE0001421FFF76DFC4FF0030251460A98ADF83F
:101BF00050200BF0FEFF0A99404608F096FCB421F5
:101C000045233922009138460921FFF766FC384602
:101C1000012108F00AFC3846012108F065FC38462D
:101C2000854908F03FFB38460A2108F03EFB38465C
:101C30000A2108F03DFB38460C2108F0B0FA2A468C
:101C40002946384608F0EBF93846012108F0FFF93B
:101C50004FF04B0384F84E3104F614092A463846F7
:101C6000452108F0BFF94A460B99384608F08EF82E
:101C70003946404608F059FCB421402339220091EE
:101C800030465521FFF729FC3046012108F0CDFBF5
:101C90003046012108F028FC3046674908F002FB75
:101CA00030460A2108F001FB30460A2108F000FB0B
:101CB00030463C2108F073FA2A462946304608F09F
:101CC000AEF94FF04B073046012108F0C0F984F817
:101CD0002E732A463046452108F084F94A460C996D
:101CE000304608F053F83146404608F01EFCB42157
:101CF0004323392200915846A121FFF7EEFB5846B5
:101D0000012108F092FB5846012108F0EDFB5846EE
:101D10004A4908F0C7FA58460A2108F0C6FA584658
:101D20000A2108F0C5FA58463C2108F038FA2A463C
:101D30002946584608F073F95846012108F087F9FA
:101D400084F80E752A465846452108F04BF94A4654
:101D50000D99DFF8F0903A4F584608F017F85946B9
:101D600040460EAE08F0E1FBE5220398B121FFF7F3
:101D7000A7FBC4F894960399A4F8985630460BF044
:101D80002DFB96E8070004F5D46383E807004FF0C5
:101D9000030251460398ADF8542014970BF0B8FD98
:101DA0000399404608F0C1FBE52204981A21FFF789
:101DB00087FBC4F8DC960499A4F8E05630460BF093
:101DC0000DFB96E8070004F5DD6383E807000823B0
:101DD00051460498ADF8543014970BF099FD0499CE
:101DE000404608F0A2FBE52205986421FFF768FB56
:101DF000C4F824970599A4F8285730460BF0EEFA5A
:101E000096E8070004F5E66383E8070009235146D6
:101E10000598ADF8543014970BF07AFD14E000BF2C
:101E2000EC7202080C8B020848720208D31F0008EB
:101E300060720208C9190008752F0108593001089D
:101E4000346F02080D203DFF0599404608F06DFBF8
:101E500006984FF48B721121FFF732FB524613A9FB
:101E60000698ADF84C50ADF850500BF0ABFD4FF06C
:101E70000603A4F874374FF0FF390698FFF740FBCC
:101E80000699C4F878974046C4F87C9708F04DFB53
:101E900007984FF48B728021FFF712FB524613A96B
:101EA0000798ADF84C50ADF850500BF08BFD072360
:101EB000A4F8BC370798FFF723FB04F62403C4F803
:101EC000AC370799C4F8C0974046C4F8C49708F0E7
:101ED0002CFB032208982B21FFF7F2FA0F4BC4F8D2
:101EE000FC370899A4F8005830460BF077FA96E8CA
:101EF000070004F6080383E8070004235146089806
:101F0000ADF8543014970BF003FD4046089908F0E3
:101F10000CFB204617B0BDE8F08F00BF301F12FF4A
:101F2000012908B505D9054B054A0648612123F06A
:101F3000F7FE8C2303FB0100043008BD7072020819
:101F4000BC7302088B72020870B5044604F5C475B0
:101F5000F03007F08AFD00212846FFF7E1FF036813
:101F6000D3F88830984701212846FFF7D9FF036846
:101F7000D3F88830984704F55A7504F5347007F0A3
:101F800074FD00212846FFF7CBFF0368D3F88830A3
:101F9000984701212846FFF7C3FF0368D3F888302C
:101FA000984704F5966004F5A96407F05EFD0021EA
:101FB0002046FFF7B5FF0368D3F8883098472046DE
:101FC0000121FFF7ADFF0368BDE87040D3F888300A
:101FD00018472DE9F0411E4600F5C4738B420446B4
:101FE0000D46174609D111462846FFF799FF236889
:101FF0000146DB6A32462046984704F55A73AB42E5
:1020000009D139462846FFF78BFF236801461B6B31
:1020100032462046984704F5A963AB420BD13946B6
:102020002846FFF77DFF2368324601465B6B20465A
:10203000BDE8F0411847BDE8F08170477047704730
:1020400041607047704701230372704770477047C3
:102050007047704710B4C468416862100346E407D3
:1020600001EB02009B6848BF8A585DF8044B48BFEB
:10207000D358184743682BB183682BB9C06800F068
:1020800001007047184670470120704710B50C21B9
:10209000044622F0C5F8204610BD10B54FF4AE71CD
:1020A000044622F0BDF8204610BD10B510210446AC
:1020B00022F0B6F8204610BD10B54021044622F0AB
:1020C000AFF8204610BD10B54021044622F0A8F814
:1020D000204610BD10B50EF06DFE0368BDE810403F
:1020E000DB6B184770B5044690F8390094F8383027
:1020F0000130C0B2984284F8390005D90123237217
:10210000002384F8393070BDB4F93A20002110F072
:102110006FFF83B213F0010206D04FF6FF71002863
:10212000D8BF0A46981800B2238AC01AA0876068F0
:102130000368DB69984705464DB1A988A38F194408
:102140002B6828461B6B09B29847AD69F4E76068B5
:102150000368BDE870405B69184770B5044690F8A5
:10216000390094F838300130C0B2984284F8390010
:1021700005D901232372002384F8393070BDB4F9E6
:102180003A20002110F034FF83B213F0010206D090
:102190004FF6FF710028D8BF0A46981800B2238A6C
:1021A000C01AA08760680368DB69984705464DB18F
:1021B000A988A38F19442B6828461B6B09B298473E
:1021C000AD69F4E760680368BDE870405B69184773
:1021D000054B1B783BB143682BB11A6800F10C0129
:1021E000526E184610477047A52B0120054B1B78EF
:1021F0003BB143682BB11A6800F10C01526E1846CE
:1022000010477047A52B012070B5037A0546BBB96E
:1022100040680368DB69984704464CB1A1886B8F1E
:10222000C91A236820461B6B09B29847A469F4E7D2
:102230006868036805F10C011B6EBDE87040184723
:1022400070BD70B5037A0546BBB940680368DB69A9
:10225000984704464CB1A1886B8FC91A2368204661
:102260001B6B09B29847A469F4E76868036805F135
:102270000C011B6EBDE87040184770BD70B5036857
:1022800004469B6B15469847236829462046DB6B1E
:10229000BDE8704018470000044B1B6893F85820B5
:1022A0000AB1D86C00B99868704700BFA82B01200C
:1022B000F8B5044617460E460EF088FE164BC4F8D5
:1022C00054711C60154B2360154BC4F84431154BF9
:1022D000C4F8586100251868C4F83C51C4F840514E
:1022E000C4F84851C4F84C51C4F850510368012156
:1022F0009B689847284600F049FDFFF7CDFF19F08D
:1023000068FEFFF7C9FF19F0DFFEFFF7C5FF19F000
:10231000E7FE2046F8BD00BFFC2B012048740208F0
:1023200030740208A82B0120064BC0F84C31002362
:10233000C0F8503100F5A273C0F84801C0F8403130
:10234000704700BFCD240008064BC0F84C31002375
:10235000C0F8503100F5A273C0F84801C0F8403110
:10236000704700BF89260008064BC0F84C31002397
:10237000C0F8503100F5A273C0F84801C0F84031F0
:10238000704700BF452800082DE9F04707469068D0
:10239000DDF820A0994603681B6A884615469847D1
:1023A00040F63703984205D8424B434AA32143489D
:1023B00023F0B6FC686803681B6A98470F2803D8A7
:1023C0003F4B3D4AA421F2E7E86803681B6A98473F
:1023D0000B2803D83B4B384AA521E8E70EF0EAFC6E
:1023E00004300EF025FDD9F8000010B10368DB6859
:1023F0009847D9F8000010B103681B6898473868FF
:1024000010B103685B699847D8F8000010B1036801
:102410005B689847386810B103681B689847D8F81C
:10242000000010B103689B689847E86803680021C2
:102430005B6A9847044620B1002343600372224B35
:102440000360A868036800215B6A9847064608B1E4
:10245000FEF704FE6868036800215B6A984705463A
:1024600010B13146FEF7D0FDC9F80040C8F8005061
:102470003E60E5B12B1DCAF80030C5F808A03368EE
:10248000F5633046DB6898472B6828461B689847F9
:102490002146304610F068FD236820461B699847A6
:1024A000236820465B6998472846BDE8F0872B469D
:1024B000E1E700BF00750208157702088E75020873
:1024C000CF750208727602089C74020807B5D0F82E
:1024D00058310093D0F85421044B00F59E71044804
:1024E000FFF752FF03B05DF804FB00BFF02B0120A3
:1024F000EC2B01202DE9F84F0746906899460368B8
:102500001B6A88461546984740F63703984205D817
:10251000544B554AA321554823F002FC68680368D0
:102520001B6A98470F2803D8514B4F4AA421F2E762
:10253000E86803681B6A98473F2803D84D4B4A4A0E
:10254000A521E8E70EF036FC04300EF071FCD9F856
:10255000000010B10368DB689847D9F8000010B19B
:1025600003681B689847386810B103685B6998472F
:10257000D8F8000010B103685B689847386810B15C
:1025800003681B689847D8F8000010B103689B687F
:102590009847E868036800215B6A98470446B0B131
:1025A00006464FF0000B344BC0F804B080F808B07A
:1025B00046F80C3B30460AF011FE142323872F4BBC
:1025C000A4F83CB01B78002B37D101232372A868F4
:1025D000036800215B6A9847064608B1FEF73EFD96
:1025E0006868036800215B6A9847054610B1314668
:1025F000FEF70AFDC9F80040C8F800503E60002D03
:102600002ED02B1D0A9A1360AA603368F5633046FA
:10261000DB6898472B6828461B6898472146304658
:1026200010F0A2FC236820461B69984723682046C7
:102630005B6998472846BDE8F88FDFF848A0104A44
:10264000BAF90010B2F90020C4F810B03046FFF714
:1026500015FE30460AF03EFDBAF800306387B6E753
:102660002B46CFE700750208197802088E7502081C
:10267000CF75020872760208E4740208A52B0120C7
:102680009C2B01209A2B012007B5D0F858310093DC
:10269000D0F85421044B00F59E710448FFF72AFF3F
:1026A00003B05DF804FB00BFF02B0120EC2B0120F0
:1026B0002DE9F84F07469068994603681B6A8846DB
:1026C00015469847B0F5007F05D2554B554AA321D2
:1026D000554823F025FB686803681B6A98470F2854
:1026E00003D8524B4F4AA421F2E7E86803681B6AFB
:1026F00098473F2803D84E4B4A4AA521E8E70EF0F9
:1027000059FB04300EF094FBD9F8000010B10368B7
:10271000DB689847D9F8000010B103681B68984738
:10272000386810B103685B699847D8F8000010B1A9
:1027300003685B689847386810B103681B6898475E
:10274000D8F8000010B103689B689847E8680368F0
:1027500000215B6A98470446B0B106464FF0000B73
:10276000344BC0F804B080F808B046F80C3B304653
:102770000AF034FD142323872F4BA4F83CB01B78B8
:10278000002B37D101232372A868036800215B6AFC
:102790009847064608B1FEF701FC68680368002107
:1027A0005B6A9847054610B13146FEF711FCC9F83F
:1027B0000040C8F800503E60002D2FD02B1D0A9A13
:1027C0001360AA603368F5633046DB6898472B686E
:1027D00028461B6898472146304610F0C5FB236801
:1027E00020461B699847236820465B69984728461E
:1027F000BDE8F88FDFF848A0104ABAF90010B2F926
:102800000020C4F810B03046FFF738FD30460AF01B
:1028100061FCBAF800305B426387B5E72B46CEE730
:1028200000750208387902088E750208CF75020813
:1028300072760208C0740208A52B01209C2B01208F
:102840009A2B012007B5D0F858310093D0F85421C5
:10285000044B00F59E710448FFF72AFF03B05DF8B2
:1028600004FB00BFF02B0120EC2B0120704710B5BA
:102870002C21044621F0D4FC204610BD30B5184D63
:102880002C78BFF35B8F14F001048FB024D128465D
:1028900021F09DFC00B33F230993124B0893124B88
:1028A00012490A94CDE9064301220423CDE90332FB
:1028B0001E2310220093CDE90B4423230594CDE978
:1028C00001440B4800F06AF8284621F08CFC094AC4
:1028D0000949074821F09FFC05480FB030BD00BFF3
:1028E000A0030020A8F702081CF702085897020866
:1028F000A4030020000000206D28000813B500226A
:1029000049B102AB019203F8052D0268946801AA4F
:10291000A04702B010BD0846FBE7C0897047008A97
:102920007047C088704780887047807A00F07F00C9
:102930007047807AC0097047002070479FED010AF8
:10294000704700BF00000000406A7047806A70470F
:102950008B88C0690A68DB0A50F82300104470476E
:1029600010B5C2B1137BB3B1547BD27A240204F404
:10297000E0641443026A98B202EB840213888B422B
:1029800002D192F9020010BD05D8013880B204329C
:102990000028F3D1F7E70020F5E7000030B58BB051
:1029A0000446BDF860500895BDF85C5007959DF849
:1029B000505006959DF84C5005959DF8485004954B
:1029C0009DF8445003959DF8405002959DF83C5069
:1029D0000195BDF8385000950FF052FE064B23606C
:1029E000159BE361169B2362199B63621A9BA3628A
:1029F00020460BB030BD00BF607A020830B5174DDD
:102A00002C78BFF35B8F14F001048FB022D12846DD
:102A100021F0DDFBF0B13F230993114B0893114BDB
:102A200011490A940122CDE906430423CDE903327A
:102A30000A230093CDE90B440594CDE901440B48EA
:102A4000FFF7ACFF284621F0CEFB094A09490748A9
:102A500021F0E1FB05480FB030BD00BFD0030020DE
:102A60009CF70208ACF70208E8EF0208D403002044
:102A7000000000206D28000810B5002404600C60E0
:102A800014601C6010BD000030B5174D2C78BFF3EA
:102A90005B8F14F001048FB022D1284621F097FB00
:102AA000F0B13F230993114B0893114B11490A943C
:102AB0000122CDE906430423CDE903322823009304
:102AC000CDE90B440594CDE901440B48FFF766FFBF
:102AD000284621F088FB094A0949074821F09BFB59
:102AE00005480FB030BD00BF00040020A4F7020865
:102AF000B0F7020800F602080404002000000020DD
:102B00006D28000830B5184D2C78BFF35B8F14F09A
:102B100001048FB024D1284621F059FB00B33F2394
:102B20000993124B0893124B12490A94CDE90643BC
:102B300001220423CDE90332322312220093CDE98E
:102B40000B443A230594CDE901440B48FFF726FFD7
:102B5000284621F048FB094A0949074821F05BFB58
:102B600005480FB030BD00BF3004002098F70208C0
:102B7000B4F7020810F60208340400200000002018
:102B80006D28000830B5174D2C78BFF35B8F14F01B
:102B900001048FB022D1284621F019FBF0B13F2368
:102BA0000993114B0893114B11490A940122CDE965
:102BB00006430423CDE9033214230093CDE90B44EB
:102BC0000594CDE901440B48FFF7E8FE284621F0C3
:102BD0000AFB094A0949074821F01DFB05480FB0C7
:102BE00030BD00BF60040020A0F7020830F80208E2
:102BF0000CF7020864040020000000206D28000883
:102C0000704710B50421044621F00AFB204610BD90
:102C100008B5042918D8DFE801F003070B0F1300EB
:102C200000F01CF8006808BD00F018F84068FAE7EA
:102C300000F014F88068F6E700F010F8C068F2E7DA
:102C400000F00CF80069EEE70020ECE70048704760
:102C5000D47A0208072070470C207047004870475C
:102C60009004002010B5FFF78DFF074C2060FFF7A0
:102C70000BFF6060FFF7C2FEA060FFF7FFFDE060A2
:102C8000FFF740FF206110BD900400200020704736
:102C9000002070470EB403B503AB002153F8042B9A
:102CA00001930FF01DF802B05DF804EB03B070471C
:102CB0000CB407B504AB53F8042B01930FF010F8D4
:102CC00003B05DF804EB02B07047000010B5044695
:102CD00010F0A6FAE38E04EB43035884636C5BB3F5
:102CE000238F2BB9174B184AC521184823F018F821
:102CF00010B3204611F091FB238F012B03D8144B06
:102D0000144ACB21F1E7E28E531C9BB2092B1946E2
:102D100088BFA3F10A0104EB410140F63F10498C42
:102D2000814209D10A2B04EB420228BF002304EBA5
:102D30004303508C588451842046BDE8104011F064
:102D40006FBA00BF607B02088D7C0208697B0208B5
:102D5000AD7B0208BB7B020810B5044611F027FAD0
:102D60002046BDE8104010F056BA10B586B002AC4F
:102D700084E806001A460AAB05930193099B009369
:102D80002146089B0DF09CFB06B010BD38B5D8B9A4
:102D9000114B12481B681249BBB11A689C681A444F
:102DA00002605A681A440A601C446CB10D4B002240
:102DB0001A80FFF753FF0546FFF74EFF0A4B1C60D2
:102DC0000A4B1D600A4B188038BD0A4B03600A4B42
:102DD0000B600A4B1C68E8E7A4040020A80400204C
:102DE000AC040020B0040020002C0120082C01209D
:102DF000042C0120C0E6060874E60608BCE60608B6
:102E0000044B1B6853F82100034B1B6803EB400085
:102E1000704700BFAC040020A8040020012380F804
:102E2000781080F879307047002070474164034B78
:102E3000003118BF01211970704700BFA52B012078
:102E400000207047836B0BB10846184770474FF658
:102E5000FF707047406803689B6918477047704768
:102E600000207047B1F9043083800120704770471B
:102E700080F82610704790F82600704710B50022A1
:102E8000B1F90840B1F90A10028042808480C18003
:102E900010BD0022028042808280C280704701778C
:102EA000704780ED080A704780F82410704780F85A
:102EB0002510704701207047983070478C3070475C
:102EC00084307047034B902283F85A2383F85823A9
:102ED000704700BF00E100E0094A0A49D3680A4888
:102EE000C3F30A03013B9BB20B801169C1F30A01D2
:102EF000013901801364536B43F00103536370473E
:102F000000680140BA040020B8040020014B986A10
:102F1000704700BF84680140024B0122996243F868
:102F2000602C7047846801407047704710B52C21B1
:102F3000044621F075F9204610BD10B5BC210446A9
:102F400021F06EF9204610BD10B531B90A4B0B4A7D
:102F50000B4840F2D22122F0E3FEC0E90F1200320A
:102F6000084918BF01220A7002681946D2F88C205D
:102F7000BDE81040104700BF397F02082C800208CE
:102F8000717F0208A42B012008B5094B1B888B42D6
:102F900003D8084B1B88934205D9074B074A0848BA
:102FA0009E2122F0BDFE074B1980074B1A8008BDF9
:102FB0009A2B01209C2B0120D67E0208E97F020873
:102FC000717F0208A02B0120A22B012070B50446BE
:102FD00007F097FD23685D6E0DF0ECFE014620467C
:102FE000A8472368054AD3F888502046AC460023FA
:102FF000A2F51631BDE87040604700BF005802D00E
:1030000007F066BD07F070BD07F02CBD07F08DBE60
:1030100010B5044608F0B4FA23682046D3F8AC3063
:10302000BDE81040184790F87A301BB1406803683B
:103030001B6818471846704710B590F8784090F80C
:1030400034100C4B8C421A7809D03AB90A4A0B4911
:103050001488088810800C8001221A7010BD002A84
:10306000FCD0054A05491488088810800C8000228D
:10307000F3E700BF9E2B01209A2B01209C2B0120FF
:10308000034B4FF080629A604FF080729A607047F5
:1030900000E100E0084B4FF08062C3F88820BFF3E6
:1030A0004F8FBFF36F8F4FF08072C3F88820BFF34C
:1030B0004F8FBFF36F8F704700E100E070B50023C2
:1030C0008380114D114B03602A6892F85810064610
:1030D00009B1D06C00B990680368DB6A98472B6827
:1030E000B0FA80F4D86C640928B10368DB6A9847A9
:1030F000002808BF01242CB9054B064A06482C219C
:1031000022F00EFE304670BDA82B0120407D020843
:103110001C7E0208B07F02087A7E020870B5294E34
:103120003578BFF35B8F15F0010548D1304621F0AB
:103130004EF8002843D0244C244B256104F1340080
:10314000C4E90035C4E90255E58425856585A58572
:103150000FF0D9F904F1580009F064FF1C4BA36586
:1031600020461C4B40F8843BFFF7A8FF1A4BC4F8DD
:1031700084302433C4F88C306423A4F8A0300023B6
:10318000C4F8AC30C4F8B030C4F8B430C4F8B830C7
:103190003046124BC4F89050C4F89C50C4F8A45068
:1031A00084F8A85084F8A95084F8AA50C4F898303C
:1031B00021F019F80A4A0B49204621F02CF8024860
:1031C00070BD00BFB4040020BC040020D4880208F5
:1031D000607D0208D87D0208888802086888020895
:1031E00000000020292F000810B5144C236823B3D9
:1031F000134B144A1B6C11888B4213D1124B198844
:1032000003F0F4FC226892F86A30013382F86A30E5
:1032100000F07EFA206808F0B3F90020BDE8104005
:1032200000F0A8BC03F0E2FC206803681B6A984722
:103230000020BDE8104000F0C7BC10BDA82B012045
:1032400000680140BA040020B804002003685B6CE9
:1032500018470120704703689B6A1847FEE7000083
:1032600082B0002301930E4B1A6B42F400021A63E2
:103270001A6B02F400020192019A1A6942F40002E8
:103280001A611A6922F400021A61064B064A1A6191
:10329000064A5A61064B4FF080629A6002B070474E
:1032A00000380240BC370120BD3200085D32000802
:1032B00000E100E040F2EF3070470000024B1B6875
:1032C000586803685B691847A82B012008B50B28CC
:1032D0000BD8DFE800F01206100A0A0A0A080808EC
:1032E0000808012008BD0520FCE7054B054A0648F3
:1032F0006F2122F015FD0020F4E70220F2E700BF65
:103300009480020866810208AF80020808B50A2886
:1033100009D8DFE800F010060E08080808060606BF
:103320000600012008BD054B054A0648902122F001
:10333000F7FC0020F6E70220F4E700BF94800208C3
:10334000B0810208AF800208F8B50C46487FFFF74D
:10335000BDFFA77F05463846FFF7B8FF064638464B
:10336000FFF7D4FFA38A628BD21A494B1A64A18A51
:10337000628B521A9A61A18A228B521A1A6158637F
:10338000A18AE28A42EA01425A642269DA636268E7
:10339000DA602268402A70D010D8042A3BD0202A54
:1033A0006BD0237F45EA0365394B45F40035DD6179
:1033B000617FA27F914267D0364A4BE0B2F5807FB1
:1033C0001BD0B2F5007F23D0802AEAD1A068021D6D
:1033D000DA62227F45EA026545F40035DD615E620E
:1033E00022695A610278EAB1012A35D02A4B2B4A68
:1033F0002B484FF48D7122F093FC217F294A42EA39
:103400000162DA61E2681A625E6222695A6120E052
:10341000217F254AF3E7227F45EA026545F400351E
:10342000DD61F1E7D9694288501E21F47F4222F024
:10343000100242EA0022DA610121154BDA6942F0FA
:103440002002DA61DA699206FCD410229A6000291F
:10345000B2D0164A1A60F8BDDA694088217F22F49A
:103460007F4222F01002013842F01002FF3942EA96
:10347000002218BF0121DA61DFE7237F45EA0365F7
:1034800045F40035024BCBE742F20132E2E700BFE0
:1034900000B00240012301007A800208288102085E
:1034A000AF8002080A0002000900020001230200A6
:1034B00010B5887F0C46FFF729FF1C4B5863A18A83
:1034C000E28A42EA01425A642269DA63628BA18A83
:1034D000521A1A642268082A16D1A18A628B521ADB
:1034E0009A61A18A628B521A1A615862217F104A2E
:1034F00042EA0162DA61E2681A6222695A6122696B
:10350000DA600C4A1A6010BD0022D8611A61E168C5
:103510000A0A480902F4784200F4FC600243C1F34D
:10352000C4010A439A63044AECE700BF00B00240BA
:10353000090001000123020001230300054B036081
:10354000054B4FF08062C3F88820BFF34F8FBFF365
:103550006F8F7047E080020800E100E010B504467C
:10356000FFF7ECFF20464FF45A6120F059FE204649
:1035700010BD000070B505462C460A4B0C300026E5
:1035800068602E726E7244F8203B6022214608F07B
:103590004FF905F55A63E6602434A342FBD128466F
:1035A00070BD00BFE0800208034B1A68D207FCD44C
:1035B00023229A60704700BF00B0024070470000AD
:1035C00030B50F4C2568ED07FCD423250904A56010
:1035D00041F001010225FF2B65636164E0630AD0BD
:1035E0000849656241EA0363E361074B2262606157
:1035F000E060236030BDE561039BA363034BF8E704
:1036000000B00240090001000100020001000300B7
:1036100030B50E4C2568ED07FCD423251204A560B7
:1036200042F001020225FF2B65636264E063E16002
:1036300008D01B0643F00213E361054B656260612D
:10364000236030BD034BE3610123F9E700B0024082
:1036500001000200020002FF30B50B4C2568ED07A7
:10366000FCD4232512041B06A56043F40033022575
:1036700042F0010265636264E063E160E361034B71
:1036800065626061236030BD00B00240010002004D
:10369000012108B50022084605F055F90A4B1860CB
:1036A00028B90A4B0A4A28210A4822F039FB00228D
:1036B0000421012005F0E8F9074B186018B9074B01
:1036C000034A2C21F0E708BD7C050020FB8102089D
:1036D000AF82020844820208780500206D82020849
:1036E000024B4FF0FF31186805F078B97C050020D7
:1036F000014B186805F09EB97C050020024B0021A3
:10370000186805F06BB900BF7C050020FFF7F0BF1B
:1037100003480449006800231A4605F0F1B900BFC8
:10372000780500200400002013B5084C00231A4639
:1037300001A9206805F016FA4FF0FF33002201A915
:10374000206805F00FFA02B010BD00BF7805002018
:10375000704770477047704701207047402070479E
:1037600000EB81100830704700EB81100830704783
:103770000120704740F63800704740F6380303FBDD
:1037800001000830704740F6380303FB01000830A1
:103790007047012070471020704700EB011008307F
:1037A000704700EB0110083070470846FEF7BCBDBB
:1037B00010B5034B0360044605F0AAFF204610BD78
:1037C0005083020810B50446FFF7F2FF2046482157
:1037D00020F026FD204610BD10B5034B03600446C3
:1037E00005F096FF204610BD1C83020810B5044664
:1037F000FFF7F2FF20464FF4046120F011FD204650
:1038000010BD000010B5034B0360044605F080FFB7
:10381000204610BDE882020810B50446FFF7F2FF0B
:103820002046182120F0FCFC204610BD10B5084BA6
:103830000360044600F66C00FFF7BAFF04F12C00A9
:10384000FFF7CAFF04F11400FFF7DCFF204610BDAC
:103850008483020810B50446FFF7E8FF204640F6CF
:10386000142120F0DDFC204610BD00002DE9F341BD
:10387000FFF7ECF90546FFF7EDF900240146234672
:1038800028462246009411F055FC284B284A1A601D
:103890002046FFF77BFA274B274A284D9A60284895
:1038A00011F0B0FB2B78BFF35B8FDB0738D42846D1
:1038B00020F08DFC002833D0224C234B236004F6EB
:1038C000B80604F1140004F12C0804F66C076060DB
:1038D000C4F80880E760266105F01CFF1B4B63619C
:1038E000404605F017FF1A4BE362384605F012FF19
:1038F000184BC4F86C3804F6B400FDF7D3FB22462D
:1039000004F6B4013046FDF701FC3046FEF70CFD2D
:10391000284620F068FC104A1049204620F07BFC25
:103920000F4802B0BDE8F04100F0ECB80C2C0120CB
:10393000D41D0020D81D0020980F002080050020F5
:10394000080000208405002084830208E882020821
:103950001C83020850830208000000202D38000854
:10396000581D002070470000014800F0D9B800BF82
:10397000581D002010B50421044620F051FC2046BB
:1039800010BD10B58C21044620F04AFC204610BD25
:1039900010B51C21044620F043FC204610BD10B594
:1039A0007C21044620F03CFC204610BD2DE9F0416E
:1039B0003E4C3F4D3F4F404B40492B6022462846EE
:1039C00020F029FC3E4EDFF838813846FFF7D2FD63
:1039D00022463C49384620F01EFC304616F0A6FC34
:1039E00022463949304620F016FC40460EF02CFBAA
:1039F00022463649404620F00EFC224634493548DE
:103A000020F009FC3448354981663549C5600023FA
:103A10000122344D0385C0E90176C0E90433C0E9D1
:103A20000633C0E9083380F82A30C3620386C0E950
:103A30000E33C0E9103380F8483080F8492080F810
:103A40004A3080F84B30C0E91333436580F8583072
:103A5000C0E91733436680F86C3080F86D3080F829
:103A60006E3080F86F300860F02129801E4D80F89C
:103A7000703029801D4D43674FF4A07129801C4D83
:103A800080F8783029801B4980F879300B701A4B08
:103A900080F87A2080F87B2080F83420036022466A
:103AA0001649BDE8F04120F0B6BB00BF0000002081
:103AB000B40F0020B80F00207084020851370008AE
:103AC000D81D00203D350008533700085537000841
:103AD000012C000808000020581D002001000001F2
:103AE000A82B01209A2B0120A02B01209C2B012028
:103AF000A22B01209E2B0120988302085737000833
:103B0000980F002010B50446FFF760FA23680349B8
:103B1000D3F88C302046BDE81040184700B004D0E0
:103B200008B503680446D3F88030984723682046D8
:103B30009B6F9847FFF7F8FD236820461B6F984757
:103B4000292000F051FCFFF7EFFD236820461B6F92
:103B50009847F8E7FFF7DAB9FFF7DEB9FFF754BA8D
:103B6000FFF7B0B9FFF78CBAFFF794BAFFF7B4B913
:103B700006F072BF032821D8DFE800F0020B12190B
:103B80000F4B1A68B2FA82F2520904210D4802F072
:103B9000FDB90B4B5A68B2FA82F252090821F5E7D7
:103BA000074B9A68B2FA82F252091021EEE7044BF1
:103BB000DA68B2FA82F252092021E7E7704700BFC3
:103BC000641E002000100240032821D8DFE800F026
:103BD000020B12190F4B1A68003218BF0122042180
:103BE0000D4802F0D3B90B4B5A68003218BF0122BE
:103BF0000821F5E7074B9A68003218BF012210210F
:103C0000EEE7044BDA68003218BF01222021E7E713
:103C1000704700BF641E00200010024003280DD82A
:103C2000DFE800F00206080A0421054802F0B3B9F3
:103C30000821FAE71021F8E72021F6E7704700BFD6
:103C40000010024008B5032811D8DFE800F0020A8E
:103C50000C0E0421074802F093F9431E58425841C4
:103C600008BD0821F6E71021F4E72021F2E7002043
:103C7000F3E700BF0010024070B5084D0024012694
:103C8000E0B2FFF7DFFF28B155F82430012B18BF51
:103C900045F824600134052CF2D170BD641E00206B
:103CA00038B50C4B0C4C18800C4B82201980636883
:103CB000984740F6110398420AD1094D23682C60B9
:103CC000822098472B688220DB689847002038BD07
:103CD0000120FCE7741E002024000020761E002036
:103CE000781E00204FF4A071F020FFF7D9BF00002C
:103CF000F7B5324D2B6804461B698220984780B285
:103D00002080002852D02B680DF106025B6901A9C2
:103D100082209847BDF8062040F674639A4247D93E
:103D2000ADF80630BDF806209B1A9BB20B22B3FB00
:103D3000F2F333B1224A12889A423CBF02F1FF33B8
:103D40009BB2BDF8042040F6B8318A4295BFC2F557
:103D50007162C2F56D620E320832ADF80420BDF812
:103D600004100F22B1FBF2F131B1164A12888A42D7
:103D70003CBF02F1FF3189B2134E144D30682F68F9
:103D800082B2814288BF8A1AB8B298BF521ABB4227
:103D90008CBF181AC01A92B280B20244052AC4BF5E
:103DA00031602B60336863802B68A38003B0F0BD63
:103DB000B32A9CBFB422ADF80620B3E7781E0020DA
:103DC000761E0020741E00207C1E0020801E002015
:103DD00037B568460D461446FFF78AFFBDF8000068
:103DE00030B1BDF802302B60BDF8043023600120F3
:103DF00003B030BD054BD3F8882042F47002C3F8FD
:103E000088204FF000629A60704700BF00ED00E02C
:103E100070B588B000230293204B1A6C42F0100258
:103E20001A641B6C03F010030293064601A903A851
:103E3000029B01F09FF8069B4BBB01F08BF8184CDE
:103E4000184B236040F2E733E360174BB0FBF3F00D
:103E500001380023606020462361A360A36101F064
:103E6000EBF9054680B9204601F0A4F8054658B99B
:103E7000362001F0E5FE0F2E0DD82A4631463620B9
:103E800001F0AAFE094B1E60284608B070BD01F083
:103E900061F84000D3E70125F6E700BF0038024093
:103EA000103601200010004040420F001C0000208E
:103EB00007B5064B02A91B6821F8020D0122044830
:103EC00002F09BF903B05DF804FB00BF1400002072
:103ED000B036012008B5642004F029FDFBE700009E
:103EE00030B595B03022002108A821F094FF1422AB
:103EF000002103A821F08FFF00241E4B01941A6CAF
:103F000042F080521A641B6C03F080530193019BB2
:103F1000194B02941A6842F440421A601B6803F479
:103F2000404302930122029B4FF48033CDE90823E2
:103F300002254FF480030821CDE90E534FF4B473EA
:103F4000CDE9101308A804231393129500F08AFDFD
:103F500000F0F6FC0F23CDE903354FF4A0504FF4E9
:103F60008053CDE90603052103A8059400F054FF12
:103F700015B030BD003802400070004080B59AB0E6
:103F800002F054FEFFF7ACFF142200210DA800241C
:103F900021F041FFC04B00941A6BC048C04D42F065
:103FA00010021A631A6B02F010020092009A019438
:103FB0001A6B42F020021A631A6B02F0200201927F
:103FC000019A02941A6B42F080021A631A6B02F093
:103FD00080020292029A03941A6B42F004021A635E
:103FE0001A6B02F004020392039A04941A6B42F0D3
:103FF00001021A631A6B02F001020492049A0594FA
:104000001A6B42F002021A631A6B02F00202059266
:10401000059A06941A6B42F040021A631A6B02F07A
:1040200040020692069A07941A6B42F008021A633D
:104030001B6B03F00803079322463C21079B01F00A
:10404000A5FF22460421974801F0A0FF22464FF425
:104050004051954801F09AFF01264FF003083C2398
:104060000DA98E48CDF8408002274FF00409CDE914
:104070000D360F9401F096FE0DA98A480F94CDE9F4
:104080000D96109701F08EFE0DA94FF4405386480F
:10409000CDE90D36CDE90F4701F084FE8348844B0E
:1040A000036002F031FF834A834B2C62C5E9002391
:1040B00028464FF48043C5E90434C5E90244C5E904
:1040C000064401F0D9FA1021284601F02DFD2146C1
:1040D000284601F04BFD7948794984624FF4827398
:1040E000C0E900134FF400751823C0E906530A23F2
:1040F000744DC362C0E90244C0E90444C0E9084405
:1041000002F01CF8704B0D974FF0100CC5E900360B
:104110004023C5E904C34FF4C073C5E906344FF426
:104120000063C5E908344FF40053AB620DA90723BF
:104130002846CDE90E39CDE910384FF0080AC5E917
:104140000249CDE9127700F037FC4FF6FF7209A95A
:10415000284608940996CDE90AA60C9400F04CFC78
:10416000304602F08FFD4FF6FF7209A92846CDE9CF
:10417000097ACDE90B6400F03FFC4FF6FF7209A904
:104180002846CDE9098ACDE90B9400F035FC4FF4BF
:104190000C730893089B0C934FF6FF7209A92846ED
:1041A000CDE9099A0B9600F027FC40F26A512846A7
:1041B00000F040FC342221460DEB020021F02BFEE2
:1041C000424D434B2C61C5E900340923C5E905364E
:1041D0001D2340F20D1EC5E9073840F24313C5E91F
:1041E00009E340F2171840F24713C5E90B83C5E90C
:1041F0000244AC8685F83640284602F0F1FBFF21E8
:10420000F022CDE912144FF4806905214FF4A07318
:10421000CDE90E24CDE91491CDE916420DA922462F
:104220002846CDE910372B4D18930D94ADF8644016
:104230008DF8664002F0B1FC274B2B601B68984755
:104240002B68264DDB689847254BC5E90A47C5E929
:104250000C442846C5E90034C5E9027402F011FA9D
:104260003146284602F0CEFA02F05FFE02F05CFE14
:1042700004F0E8FA1B4A1C48214604F00FFB1B4BD4
:104280001B4A186021461B4804F008FB1A4B1860B3
:1042900004F0EAFAFEE700BF0038024000100240D6
:1042A0005C36012000080240000C02400837012063
:1042B00000300240005C0040A0860100B0360120C2
:1042C00000500140FC370120400100A010370120C0
:1042D00000680140841E00204C000020BC370120F3
:1042E00000B00240BC840208D53E000858360120C8
:1042F00098840208396F0008B8370120704770476A
:1043000010B586B006AC074B04F8012D1B6802936C
:1043100001230A46CDE900430146034801F05CFA57
:1043200006B010BD100000205C3601207FB506AA43
:10433000002302F8013D084B1B6802930123CDE9DD
:1043400000230A460146054801F0DAFA9DF81700F5
:1043500007B05DF804FB00BF100000205C360120B0
:104360001FB5084C24680092CDE901340A460123A8
:104370000146054801F0C4FA003018BF012004B01E
:1043800010BD00BF100000205C36012002F07ABC96
:1043900010B5064C00222046042101F0F7FD20460E
:1043A00001220421BDE8104001F0F0BD00080240E8
:1043B00038B50B4C054601224FF40051094801F075
:1043C000E5FD00220421204601F0E0FD2846FFF72C
:1043D0006FFD204601220421BDE8384001F0D6BD22
:1043E00000080240000C024038B50B4C0546002284
:1043F0004FF40051094801F0C9FD00220421204674
:1044000001F0C4FD2846FFF753FD20460122042198
:10441000BDE8384001F0BABD00080240000C02407F
:10442000F7B5144C144D07460E46204600220421D1
:1044300001F0ACFD00224FF40051284601F0A6FD2A
:104440003846FFF735FD0D4B0D481B68324601A974
:1044500002F075F8284601224FF40051019E01F048
:1044600095FD20460122042101F090FD304603B065
:10447000F0BD00BF00080240000C02401400002004
:10448000B036012002F0FEBB0268034B9A4201D114
:1044900002F0E6BB704700BF001000407047704755
:1044A000FEE7FEE7FEE7FEE770470000014800F088
:1044B000BFBD00BF10360120014802F00DBB00BF98
:1044C00010370120014802F00CB900BFBC370120B1
:1044D00082B00E4B00220092596C41F48041596425
:1044E000596C01F48041009100990192196C41F0DE
:1044F000805119641B6C03F080530193019B0F21C1
:104500006FF0010002B001F067BB00BF003802404D
:104510000268094B9A4282B00BD100230193074BEA
:104520001A6B42F480521A631B6B03F4805301939D
:10453000019B02B0704700BF0030024000380240CB
:1045400007B50F4B02689A4216D10022A3F5F0433B
:104550000192196B41F4000119631B6B03F4000312
:10456000019305215A20019B01F036FB5A2003B02C
:104570005DF804EB01F064BB03B05DF804FB00BF21
:1045800000B002402DE9F043044689B01422002116
:1045900003A821F040FC2268244B9A4243D1244CCA
:1045A000244800250095236B43F004032363236B09
:1045B00003F004030093009B0195236B43F0010378
:1045C0002363236B03F001030193019B4FF0120956
:1045D0004FF400734FF001080327042603A9CDE927
:1045E0000339CDE90587079601F0DCFB4FF48073B2
:1045F00003A911480796CDE90339CDE9058701F0F4
:10460000D1FB0295236C43F400032364236C03F471
:1046100000030293029B236A43F400032362236A8C
:1046200023F40003236209B0BDE8F083005C00407E
:10463000003802400008024000000240F0B599B086
:1046400004461422002107A821F0E5FB30220DEBDF
:104650000200002121F0DFFB22685E4B9A4240F00D
:10466000B78008230C93C0231093042312930CA843
:104670004FF40033159302F019FB08B1FFF70EFF5A
:10468000554B5648002400945A6C42F080625A649C
:104690005A6C02F080620092009A01941A6B42F008
:1046A00020021A631A6B02F020020192019A02940E
:1046B0001A6B42F001021A631A6B02F001020292B5
:1046C000029A03941A6B42F002021A631A6B02F008
:1046D00002020392039A04941A6B42F040021A6396
:1046E0001A6B02F040020492049A05941A6B42F08D
:1046F00004021A631A6B02F004020592059A0694EA
:104700001A6B42F008021A631B6B03F0080306934E
:1047100002250E26069B0B964FF4806307A9CDE970
:104720000735CDE9094501F03DFB41F6580307A9DE
:104730002B480B96CDE907350927CDE9094501F04E
:1047400031FB032307A927480B97CDE90735CDE9AE
:10475000094501F027FB4FF4706307A921480B9628
:10476000CDE90735CDE9094501F01CFB4FF40C6399
:1047700007A91D480B96CDE90735CDE9094501F09C
:1047800011FBC02307A919480B96CDE90735CDE9E0
:10479000094501F007FB082307A915480B96CDE949
:1047A0000735CDE9094501F0FDFA4FF4A05307A9FB
:1047B0000D480B97CDE90735CDE9094501F0F2FA2F
:1047C00058202246052101F007FA582001F038FA56
:1047D00019B0F0BD006801400038024000140240EA
:1047E000000002400004024000180240000802409D
:1047F000000C024010B5044688B01422002103A822
:1048000021F009FB2268144B9A4223D103F5684337
:10481000002101915A6C114842F480125A645A6C7A
:1048200002F480120192019A02911A6B42F0200266
:104830001A631B6B03F020030293029B4FF4607218
:1048400002230321CDE903230523CDE9061303A9A0
:1048500001F0A8FA08B010BD005001400014024059
:104860002DE9F04186B01422002101A821F0D3FAED
:104870002B4B1C68002C4FD14FF00108C3F800806F
:10488000284B00949A6B284842EA08029A639B6B73
:1048900003EA08030093022703260C25009B01A9C5
:1048A0004FF63F03CDE90137CDE9046501F07AFA0F
:1048B00001A91E480595CDE90187CDE9034601F020
:1048C00071FA48F2331301A919480595CDE901376A
:1048D000CDE9034601F066FA4FF6837301A9154846
:1048E0000595CDE90137CDE9034601F05BFA4CF2BD
:1048F000037301A910480595CDE90137CDE90346B9
:1049000001F050FA602301A90C480595CDE9013763
:10491000CDE9034601F046FA06B0BDE8F08100BFDC
:10492000881E0020003802400014024000080240A7
:104930000018024000100240000C02400004024037
:1049400037B500230193184B184C1A6C42F0805273
:104950001A641B6C03F080530193019B144B0122DA
:104960001A6002F089F905466368DA030BD5114B2A
:104970000E4C01221A6002F07FF9054663689B0322
:104980000AD5002006E002F077F9401BB0F57A7FE7
:10499000EAD9032003B030BD02F06EF9401BB0F538
:1049A0007A7FEBD9F5E700BF003802400070004085
:1049B00040000E4244000E4238B50D460446C8B1D0
:1049C00090F82C3003F0FF021BB980F82D20FFF780
:1049D00047FF022384F82C30211D206801F03EF9A6
:1049E00062682068294601F06DF9012384F82C30B3
:1049F000002038BD0120FCE770B5054690F82C007A
:104A0000C0B202280E4612D000F0FB04012C0FD1D8
:104A1000022385F82C30286801F096F93368022BC0
:104A200006BF052385F82C3085F82C40002070BD8A
:104A30000120FCE738B5044690F82C00C0B20228EB
:104A40000DD094F82C50EDB2012D09D1022384F839
:104A50002C30206801F09CF984F82C50002038BDDF
:104A60000120FCE72DE9F341044608B9012041E0AB
:104A70000368DD0710D4236898075AD423681A07FF
:104A800000F19C8023685B0700F1BA80A0690028D0
:104A900040F01C8100202DE0A44B9A6802F00C022B
:104AA000042A07D09A6802F00C02082A0AD15B682F
:104AB000590207D59D4B1B689A03DCD56368002B10
:104AC000D9D1D3E76268994BB2F5803F15D11A6806
:104AD00042F480321A606368F3B102F0CDF8934D6E
:104AE00006462B689B03C6D402F0C6F8801B6428D8
:104AF000F7D9032002B0BDE8F081B2F5A02F1A6803
:104B000003D142F480221A60E1E722F480321A6075
:104B10001A6822F48022DDE702F0AEF8834D0646E3
:104B20002B689F03A7D502F0A7F8801B6428F7D94C
:104B3000DFE77E4B9A6812F00C0F07D09A6802F0FC
:104B40000C02082A11D15B685E020ED4774B1A68FA
:104B5000950702D5E268012A88D11A68216922F0F6
:104B6000F80242EAC1021A6088E7E268704BB2B10B
:104B700001221A6002F080F86C4D06462B689807F7
:104B800007D52B68226923F0F80343EAC2032B60A0
:104B900074E702F071F8801B0228EFD9A9E71A60C8
:104BA00002F06AF8614D06462B6899077FF566AFFB
:104BB00002F062F8801B0228F6D99AE762695D4B21
:104BC0007AB101221A6002F057F8584D06466B6F11
:104BD0009F073FF557AF02F04FF8801B0228F6D928
:104BE00087E71A6002F048F8504D06466B6F980749
:104BF0007FF548AF02F040F8801B0228F6D978E72D
:104C00004A4B1A6C12F080522BD101921A6C42F06E
:104C100080521A641B6C03F080530193019B0126A0
:104C2000454D2B68D9051ED5A268404B012A2AD1D3
:104C30001A6F42F001021A67A368002B37D002F006
:104C40001BF83A4D074641F288382B6F9B0728D551
:104C5000002E3FF41BAF354A136C23F080531364CE
:104C600014E70026DCE72B6843F480732B6002F026
:104C700003F807462B68DA05D6D401F0FDFFC01B08
:104C80000228F7D935E7052A1A6F03D142F004024A
:104C90001A67CDE722F001021A671A6F22F00402A8
:104CA000C9E701F0E9FFC01B4045CED921E701F07B
:104CB000E3FF1E4D074641F288382B6F9807C7D592
:104CC00001F0DAFFC01B4045F7D912E7174DAB687A
:104CD00003F00C03082B46D0184E00230228336043
:104CE00034D101F0C9FF07462B68990128D4D4E9D3
:104CF00007321343626A43EA8213E26A43EA0263B9
:104D0000A26A0A4C5208013A43EA02436B6001234B
:104D1000336001F0B1FF054623689A013FF5BAAE52
:104D200001F0AAFF401B0228F6D9E2E60038024053
:104D300000004742800E474200700040600047423A
:104D400001F09AFFC01B0228CED9D2E601F094FFF1
:104D500004462B689B017FF59DAE01F08DFF001B83
:104D60000228F6D9C5E601283FF4C4AE6B68E269B3
:104D700003F4800191427FF479AE216A03F03F028F
:104D80008A427FF473AE616A47F6C0721A40B2EB92
:104D9000811F7FF46BAEA26A520803F44031013ADE
:104DA000B1EB024F7FF462AEE26A03F07063B3EBE3
:104DB000026F14BF012000209CE600BF08B5134914
:104DC0008B6803F00C03042B03D0082B03D010488E
:104DD00000E0104808BD4A684B68496813F4800336
:104DE00014BF0C480A48C1F3881118BF002302F011
:104DF0003F02A1FB0001FBF769FE044B5B68C3F3B4
:104E0000014301335B00B0FBF3F0E3E700380240FD
:104E10000024F40000127A002DE9F0410D4604460A
:104E200010B90120BDE8F081454B1A6802F00F026D
:104E30008A422AD323689E072FD42368D90743D4F4
:104E40003F4B1A6802F00F02AA4268D823685A073B
:104E50006ED423681B0707D53A4A2169936823F467
:104E6000604343EAC1039360FFF7A8FF354B364A1E
:104E70009B68C3F30313D35CD840344B1860344BA6
:104E80001868FEF7C5FF0020CCE7CAB21A701B688D
:104E900003F00F038B42C4D1CCE7580741BF294A26
:104EA000936843F4E05393602368264A13F0080F95
:104EB0001EBF936843F4604393609368A16823F036
:104EC000F0030B439360B8E762681E4B012A1CD1C4
:104ED0001B6813F4003FA4D01A4EB36823F00303F9
:104EE0001343B36001F0C8FE41F288380746B36847
:104EF000626803F00C03B3EB820FA1D001F0BCFE9B
:104F0000C01B4045F3D903208CE7911E01291B6883
:104F100002D813F0007FDEE713F0020FDBE7EAB2FE
:104F20001A701B6803F00F03AB427FF47AAF8DE772
:104F3000044AE168936823F4E0530B43936088E7E5
:104F4000003C024000380240808402080C0000202F
:104F50001C000020044B054A9B68C3F38223D35CEA
:104F6000034A1068D8407047003802409084020815
:104F70000C0000200F2303600B4B9A6802F0030221
:104F800042609A6802F0F00282609A6802F4E0528D
:104F9000C2609B68DB0803F4E0530361034B1B68AA
:104FA00003F00F030B60704700380240003C0240E2
:104FB0007047000090F83D30012B31D10268022388
:104FC00080F83D30D36843F00103D3600368154A8D
:104FD00093421AD0B3F1804F17D0A2F57C4293428E
:104FE00013D002F5806293420FD002F580629342A3
:104FF0000BD002F57842934207D002F570529342EB
:1050000003D0A2F59432934204D19A6802F00702C9
:10501000062A03D01A6842F001021A600020704785
:10502000012070470000014070477047704770478B
:1050300070B50368DD681E69B10704460ED5AA077E
:105040000CD56FF002021A610123037703689B6994
:105050009B076CD0FFF7E9FF00232377710711D579
:105060006A070FD523686FF004021A6102232377C1
:1050700023689B6913F4407F20465ED0FFF7D5FF7D
:1050800000232377330710D528070ED523686FF048
:1050900008021A61042323772368DB6999072046F5
:1050A00051D0FFF7C2FF00232377F20611D5EB069C
:1050B0000FD523686FF010021A6108232377236845
:1050C000DB6913F4407F204643D0FFF7AEFF002397
:1050D0002377F00708D5E90706D523686FF00102AA
:1050E0001A612046FFF7D0F9320608D52B0606D5FF
:1050F00023686FF080021A61204600F059FD7006A7
:1051000008D5690606D523686FF040021A6120466B
:10511000FFF78DFFB20622D5AB0620D523686FF0CE
:1051200020021A612046BDE8704000F040BDFFF744
:105130007BFF2046FFF77AFF8EE7FFF775FF2046DB
:10514000FFF774FF9CE7FFF76FFF2046FFF76EFF46
:10515000A9E7FFF769FF2046FFF768FFB7E770BDD3
:10516000334A0368904212D0B0F1804F0FD0A2F5BD
:105170007C4290420BD002F58062904207D002F54B
:105180008062904203D002F57842904219D14A6879
:1051900023F070031343264A904229D0B0F1804F88
:1051A00026D0A2F57C42904222D002F58062904245
:1051B0001ED002F5806290421AD002F578429042E9
:1051C00016D01C4A904213D002F5806290420FD054
:1051D00002F5806290420BD0A2F59832904207D03F
:1051E00002F58062904203D002F58062904203D1C2
:1051F000CA6823F4407313434A6923F080031343BE
:1052000003608B68C3620B688362094B984203D0CA
:1052100003F58063984201D10B6903630123436165
:105220000369DB0742BF036923F001030361704791
:10523000000001400040014010B5044630B390F832
:105240003D3003F0FF021BB980F83C20FFF7B0FEB1
:10525000022384F83D302068211DFFF781FF0123E0
:1052600084F84630002084F83E3084F83F3084F8DB
:10527000403084F8413084F8423084F8433084F878
:10528000443084F8453084F83D3010BD0120FCE7FF
:1052900001684B6913F480634FF0000210D06FF483
:1052A00080634B612023026380F83D3080F83E200C
:1052B000036C80F83C2043F0040303640120704732
:1052C000184670472DE9F843089E044690461F464D
:1052D0004FEA11498DB22068B9F1010F0CBF436943
:1052E000836935EA03030CBF01210021884501D001
:1052F000002023E07B1CEFD001F0BEFC801BB842F5
:1053000001D8002FE7D12168B9F1010F0CBF4B691B
:105310008B6935EA03030CBF012100218845DAD1EE
:1053200000232022236384F83D2084F83E30226C41
:1053300084F83C3042F0200222640120BDE8F8836A
:105340002DE9F0410446174698468EB225686869F3
:1053500036EA000018D06B695A0517D52B6843F45C
:1053600000732B6023686FF480625A61002320224F
:10537000236384F83D2084F83E30226C42F004021E
:10538000226484F83C300120BDE8F0817B1CDED033
:1053900001F072FCA0EB0800B84201D8002FD5D173
:1053A00023685B6936EA0303D0D0002320222363FD
:1053B00084F83D2084F83E30226C42F02002DFE782
:1053C00070B504460D46164623685B695B0701D538
:1053D000002070BD2046FFF75BFFC8B96A1CF3D000
:1053E00001F04AFC801BA84201D8002DECD12368B3
:1053F0005B6913F00403E7D12022236384F83D2086
:1054000084F83E30226C84F83C3042F02002226462
:105410000120DEE770B504460D4616462068436954
:1054200013F0400301D0002010E04269D2060ED5EF
:105430006FF0100242612022236384F83D2084F83B
:105440003E30226C226484F83C30012070BD01F0B3
:1054500013FC801BA84201D8002DDFD123685B69B3
:1054600013F04003DAD12022236384F83D2084F82E
:105470003E30226C42F02002E4E770B504460D464F
:10548000164623685B691B0601D5002070BD2046C7
:10549000FFF7FEFEC8B96A1CF3D001F0EDFB801BDC
:1054A000A84201D8002DECD123685B6913F080037A
:1054B000E7D12022236384F83D2084F83E30226C1B
:1054C00084F83C3042F0200222640120DEE7000034
:1054D0002DE9FF41154602680B9E9846136843F478
:1054E000807313600F460A9B009600224FF0011153
:1054F0000446FFF7E7FE236838B11B68DB0502D5D9
:105500004FF40073236403200AE007F0FE071F61D5
:105510000A9A194933462046FFF712FF18B10120B5
:1055200004B0BDE8F081236803905A6903929B6937
:10553000039332460A99039B2046FFF79EFF40B132
:10554000236C042B01BF2268136843F400731360BB
:10555000E5E7B8F1010F236802D1EDB21D61DFE785
:105560002A0A1A610A9932462046FFF786FF002868
:10557000E6D12368F1E700BF020001002DE9FF41F9
:10558000164602680B9D9846136843F480631360C7
:105590000268136843F4807313600F460A9B0095FA
:1055A00000224FF001110446FFF78CFE236848B13A
:1055B0001B68DB0502D54FF400732364032004B09D
:1055C000BDE8F081FFB207F0FE021A6129490A9A8C
:1055D0002B462046FFF7B4FE08B10120EFE7236811
:1055E00003905A6903929B6903932A460A99039B85
:1055F0002046FFF742FF40B1236C042B01BF226815
:10560000136843F400731360E7E7B8F1010F2368F0
:1056100025D1F6B21E612A460A992046FFF72DFFD2
:1056200002460028E8D121680B6843F480730B60C0
:1056300020460A9B00954FF00111FFF743FE2368B7
:105640000028B5D147F001071F610A9A09492B4686
:105650002046FFF775FE003018BF0120AFE7320A81
:105660001A610A992A462046FFF707FF0028C3D18E
:105670002368CEE70200010070B5044608B9012096
:1056800070BD90F83D3003F0FF021BB980F83C205C
:10569000FEF778FF2268242384F83D30136823F056
:1056A000010313602268136843F400431360226807
:1056B000136823F400431360FFF74CFC424B62680D
:1056C0009A4294BF414B424B98428CBF0023012326
:1056D000002BD4D122683F495368B0FBF1F123F08D
:1056E0003F030B4353606668374B25689E4288BF73
:1056F0004FF496732A6A8ABF4B434B1C4FF47A715E
:1057000022F03F0284BFB3FBF1F3013313432B625A
:1057100021686368CA692C4D22F44F42AB4222F0E3
:10572000FF0200F1FF3035D85B00B0FBF3F0431C03
:10573000C3F30B03042B38BF04231343CB6121684D
:10574000D4E907300A68034322F0C00213430B6018
:105750002168D4E903038A6822F40342034322F058
:10576000FF0213438B602168D4E90530CA68034304
:1057700022F0FF021343CB602268136843F0010359
:10578000136000202023206484F83D30206384F8D7
:105790003E0075E7A56855B903EB4303B0FBF3F092
:1057A000431CC3F30B036BB143F40043C5E7192556
:1057B0006B43B0FBF3F0431CC3F30B0313B143F48F
:1057C0004043BAE70123B8E7A08601007F841E00AA
:1057D000FF083D0040420F002DE9F743044699467B
:1057E0000F4690460C9E01F047FA94F83D30202B6E
:1057F000054603D0022003B0BDE8F08300901923D2
:1058000001223D492046FFF75DFD0028F2D194F8C2
:105810003C30012BEED0012384F83C3023681A6819
:10582000D2075EBF1A6842F001021A60226813684C
:1058300023F400631360212384F83D30402384F86F
:105840003E30002323640A9B6362BDF82C306385DD
:10585000638D2385294BE362CDE900654B464246C3
:1058600039462046FFF734FE00282DD00120C2E73C
:10587000FFF703FE40B1236C042B01BF22681368BD
:1058800043F400731360F1E7626A236812781A61C7
:10589000616A628D4B1C6362238D013A92B2013BB7
:1058A00062859BB222682385506940070CD55BB1A5
:1058B0004B781361636A01336362238D013B238557
:1058C000638D013B9BB26385238D2A46314620467A
:1058D000002BCDD1FFF774FD0028CCD122681368CE
:1058E00043F400731360202384F83D3084F83C00B7
:1058F00084F83E007FE700BF020010000000FFFFB9
:105900002DE9F043044687B099460D469046109F16
:1059100001F0B2F994F83D30202B064604D0022560
:10592000284607B0BDE8F0830090192301227B4987
:105930002046FFF7C7FC0028F1D194F83C30012B3A
:10594000EDD0012384F83C3023681A68D0075EBF8D
:105950001A6842F001021A602268136823F4006397
:105960001360222384F83D30402384F83E30002326
:1059700023640E9B6362BDF83C306385638D238591
:10598000674BE3622946CDE900764B464246204606
:10599000FFF7F4FD054608B10125C1E7228D236814
:1059A000B2B902905A6902929A690292029A1A68EE
:1059B00042F400721A60DFF86C81238D002B2FD126
:1059C000202284F83D2084F83C3084F83E30A7E75C
:1059D000012A0BD11A6822F480621A6023680390AE
:1059E0005A6903929A690392039AE0E7022A10D156
:1059F0001A6822F480621A602268136843F4006314
:105A00001360236804905A6904929B690493049B71
:105A1000D1E705905A6905929B690593059BCAE7F2
:105A2000032B58D8012B0BD1324639462046FFF7BD
:105A3000F1FC0028B0D123681A69636A1A7021E06A
:105A4000022B00963B464FF000024146204624D1EF
:105A5000FFF738FC00289FD12268136843F40073D5
:105A6000136023681A69636A1A70626A531C63625E
:105A7000238D013B2385638D013B9BB263852368A6
:105A80001B695370636A01336362238D013B238575
:105A9000638D013B9BB263858FE7FFF713FC0246E2
:105AA00000287FF479AF21680B6823F480630B60D2
:105AB00023681969636A1970636A00960133636227
:105AC000238D013B2385638D013B9BB2638541465A
:105AD0003B462046BCE7324639462046FFF79AFC53
